{
  "address": "0xbA99B8a284f45447929A143dC2EFA5BCFE7adE60",
  "abi": [
    {
      "inputs": [
        {
          "internalType": "address",
          "name": "_signer",
          "type": "address"
        },
        {
          "internalType": "address",
          "name": "_blast",
          "type": "address"
        }
      ],
      "stateMutability": "nonpayable",
      "type": "constructor"
    },
    {
      "inputs": [],
      "name": "ECDSAInvalidSignature",
      "type": "error"
    },
    {
      "inputs": [
        {
          "internalType": "uint256",
          "name": "length",
          "type": "uint256"
        }
      ],
      "name": "ECDSAInvalidSignatureLength",
      "type": "error"
    },
    {
      "inputs": [
        {
          "internalType": "bytes32",
          "name": "s",
          "type": "bytes32"
        }
      ],
      "name": "ECDSAInvalidSignatureS",
      "type": "error"
    },
    {
      "inputs": [
        {
          "internalType": "address",
          "name": "owner",
          "type": "address"
        }
      ],
      "name": "OwnableInvalidOwner",
      "type": "error"
    },
    {
      "inputs": [
        {
          "internalType": "address",
          "name": "account",
          "type": "address"
        }
      ],
      "name": "OwnableUnauthorizedAccount",
      "type": "error"
    },
    {
      "anonymous": false,
      "inputs": [
        {
          "indexed": false,
          "internalType": "address",
          "name": "candidate",
          "type": "address"
        }
      ],
      "name": "OwnerCandidateChanged",
      "type": "event"
    },
    {
      "anonymous": false,
      "inputs": [
        {
          "indexed": false,
          "internalType": "address",
          "name": "newOwner",
          "type": "address"
        }
      ],
      "name": "OwnerCandidateConfirmed",
      "type": "event"
    },
    {
      "anonymous": false,
      "inputs": [
        {
          "indexed": true,
          "internalType": "address",
          "name": "previousOwner",
          "type": "address"
        },
        {
          "indexed": true,
          "internalType": "address",
          "name": "newOwner",
          "type": "address"
        }
      ],
      "name": "OwnershipTransferred",
      "type": "event"
    },
    {
      "anonymous": false,
      "inputs": [
        {
          "indexed": false,
          "internalType": "address",
          "name": "candidate",
          "type": "address"
        }
      ],
      "name": "SignerCandidateChanged",
      "type": "event"
    },
    {
      "anonymous": false,
      "inputs": [
        {
          "indexed": false,
          "internalType": "address",
          "name": "newSigner",
          "type": "address"
        }
      ],
      "name": "SignerCandidateConfirmed",
      "type": "event"
    },
    {
      "anonymous": false,
      "inputs": [
        {
          "indexed": true,
          "internalType": "address",
          "name": "recipient",
          "type": "address"
        },
        {
          "indexed": false,
          "internalType": "uint256",
          "name": "amount",
          "type": "uint256"
        }
      ],
      "name": "Withdrawn",
      "type": "event"
    },
    {
      "anonymous": false,
      "inputs": [
        {
          "indexed": false,
          "internalType": "address[]",
          "name": "pair",
          "type": "address[]"
        }
      ],
      "name": "YeildClaimed",
      "type": "event"
    },
    {
      "inputs": [],
      "name": "blast",
      "outputs": [
        {
          "internalType": "contract IBlast",
          "name": "",
          "type": "address"
        }
      ],
      "stateMutability": "view",
      "type": "function"
    },
    {
      "inputs": [
        {
          "internalType": "address",
          "name": "_signer",
          "type": "address"
        }
      ],
      "name": "changeSigner",
      "outputs": [],
      "stateMutability": "nonpayable",
      "type": "function"
    },
    {
      "inputs": [
        {
          "internalType": "address[]",
          "name": "_contractAddresses",
          "type": "address[]"
        }
      ],
      "name": "claimAllGas",
      "outputs": [],
      "stateMutability": "payable",
      "type": "function"
    },
    {
      "inputs": [
        {
          "internalType": "address[]",
          "name": "_pairs",
          "type": "address[]"
        }
      ],
      "name": "claimAllPoolsGas",
      "outputs": [],
      "stateMutability": "payable",
      "type": "function"
    },
    {
      "inputs": [
        {
          "internalType": "address[]",
          "name": "_contractAddresses",
          "type": "address[]"
        },
        {
          "internalType": "uint256[]",
          "name": "_gasToClaim",
          "type": "uint256[]"
        },
        {
          "internalType": "uint256[]",
          "name": "_gasSecondsToConsume",
          "type": "uint256[]"
        }
      ],
      "name": "claimGas",
      "outputs": [],
      "stateMutability": "payable",
      "type": "function"
    },
    {
      "inputs": [
        {
          "internalType": "address[]",
          "name": "_contractAddresses",
          "type": "address[]"
        },
        {
          "internalType": "uint256[]",
          "name": "_minClaimRateBips",
          "type": "uint256[]"
        }
      ],
      "name": "claimGasAtMinClaimRate",
      "outputs": [],
      "stateMutability": "payable",
      "type": "function"
    },
    {
      "inputs": [
        {
          "internalType": "address[]",
          "name": "_contractAddresses",
          "type": "address[]"
        }
      ],
      "name": "claimMaxGas",
      "outputs": [],
      "stateMutability": "payable",
      "type": "function"
    },
    {
      "inputs": [
        {
          "internalType": "address[]",
          "name": "_pairs",
          "type": "address[]"
        },
        {
          "internalType": "address",
          "name": "_newGovernor",
          "type": "address"
        }
      ],
      "name": "configureGovernorOnBehalf",
      "outputs": [],
      "stateMutability": "nonpayable",
      "type": "function"
    },
    {
      "inputs": [],
      "name": "confirmSigner",
      "outputs": [],
      "stateMutability": "nonpayable",
      "type": "function"
    },
    {
      "inputs": [],
      "name": "confirmTransferOwnership",
      "outputs": [],
      "stateMutability": "nonpayable",
      "type": "function"
    },
    {
      "inputs": [
        {
          "internalType": "address",
          "name": "",
          "type": "address"
        }
      ],
      "name": "nonces",
      "outputs": [
        {
          "internalType": "uint256",
          "name": "",
          "type": "uint256"
        }
      ],
      "stateMutability": "view",
      "type": "function"
    },
    {
      "inputs": [],
      "name": "owner",
      "outputs": [
        {
          "internalType": "address",
          "name": "",
          "type": "address"
        }
      ],
      "stateMutability": "view",
      "type": "function"
    },
    {
      "inputs": [],
      "name": "ownerCandidate",
      "outputs": [
        {
          "internalType": "address",
          "name": "",
          "type": "address"
        }
      ],
      "stateMutability": "view",
      "type": "function"
    },
    {
      "inputs": [
        {
          "internalType": "address",
          "name": "contractAddress",
          "type": "address"
        }
      ],
      "name": "readGasParams",
      "outputs": [
        {
          "internalType": "uint256",
          "name": "etherSeconds",
          "type": "uint256"
        },
        {
          "internalType": "uint256",
          "name": "etherBalance",
          "type": "uint256"
        },
        {
          "internalType": "uint256",
          "name": "lastUpdated",
          "type": "uint256"
        },
        {
          "internalType": "enum IBlast.GasMode",
          "name": "",
          "type": "uint8"
        }
      ],
      "stateMutability": "view",
      "type": "function"
    },
    {
      "inputs": [],
      "name": "renounceOwnership",
      "outputs": [],
      "stateMutability": "nonpayable",
      "type": "function"
    },
    {
      "inputs": [],
      "name": "signer",
      "outputs": [
        {
          "internalType": "address",
          "name": "",
          "type": "address"
        }
      ],
      "stateMutability": "view",
      "type": "function"
    },
    {
      "inputs": [],
      "name": "signerCandidate",
      "outputs": [
        {
          "internalType": "address",
          "name": "",
          "type": "address"
        }
      ],
      "stateMutability": "view",
      "type": "function"
    },
    {
      "inputs": [
        {
          "internalType": "address",
          "name": "_newOwner",
          "type": "address"
        }
      ],
      "name": "transferOwnership",
      "outputs": [],
      "stateMutability": "nonpayable",
      "type": "function"
    },
    {
      "inputs": [
        {
          "internalType": "uint256",
          "name": "_amount",
          "type": "uint256"
        },
        {
          "internalType": "bytes",
          "name": "_sig",
          "type": "bytes"
        }
      ],
      "name": "withdrawGas",
      "outputs": [],
      "stateMutability": "payable",
      "type": "function"
    },
    {
      "stateMutability": "payable",
      "type": "receive"
    }
  ],
  "transactionHash": "0x6760c3377c2d819d6fc2eb4f57b0bcd35f1e75fb079e9a0cd046329a08a339e1",
  "args": [
    "0x89dA5520BAf6F2956118256b550FC45e2CC9d583",
    "0x4300000000000000000000000000000000000002"
  ],
  "numDeployments": 1,
  "solcInputHash": "e6057af15d867ef313af2fd4307625dc",
  "bytecode": "0x60a06040523480156200001157600080fd5b5060405162001a8338038062001a838339810160408190526200003491620000fa565b33806200005b57604051631e4fbdf760e01b81526000600482015260240160405180910390fd5b62000066816200008d565b50600180546001600160a01b0319166001600160a01b039384161790551660805262000132565b600080546001600160a01b038381166001600160a01b0319831681178455604051919092169283917f8be0079c531659141344cd1fd0a4f28419497f9722a3daafe3b4186f6b6457e09190a35050565b80516001600160a01b0381168114620000f557600080fd5b919050565b600080604083850312156200010e57600080fd5b6200011983620000dd565b91506200012960208401620000dd565b90509250929050565b60805161190b6200017860003960008181610166015281816103b6015281816105d5015281816109ad01528181610c1901528181610dc80152610f45015261190b6000f3fe6080604052600436106101485760003560e01c80638da5cb5b116100c0578063db942c0b11610074578063dde798a411610059578063dde798a41461033c578063f2fde38b1461036c578063f3b0f4c71461038c57600080fd5b8063db942c0b14610309578063dcce78971461032957600080fd5b8063aad2b723116100a5578063aad2b723146102c1578063b86bb1cd146102e1578063cc29516a146102f457600080fd5b80638da5cb5b146102905780639d2bc71a146102ae57600080fd5b80635a343fea11610117578063715018a6116100fc578063715018a61461022d5780637ecebe0014610242578063839297da1461027d57600080fd5b80635a343fea146101fa5780635f504a821461020d57600080fd5b8063175e1a7d14610154578063238ac933146101a5578063465cedee146101c55780635136a089146101e557600080fd5b3661014f57005b600080fd5b34801561016057600080fd5b506101887f000000000000000000000000000000000000000000000000000000000000000081565b6040516001600160a01b0390911681526020015b60405180910390f35b3480156101b157600080fd5b50600154610188906001600160a01b031681565b3480156101d157600080fd5b50600254610188906001600160a01b031681565b6101f86101f3366004611518565b6103a1565b005b6101f8610208366004611518565b6104aa565b34801561021957600080fd5b50600354610188906001600160a01b031681565b34801561023957600080fd5b506101f8610549565b34801561024e57600080fd5b5061026f61025d366004611576565b60046020526000908152604090205481565b60405190815260200161019c565b6101f861028b366004611598565b61055d565b34801561029c57600080fd5b506000546001600160a01b0316610188565b6101f86102bc36600461161a565b6106ee565b3480156102cd57600080fd5b506101f86102dc366004611576565b6108b2565b6101f86102ef366004611518565b610998565b34801561030057600080fd5b506101f8610a9c565b34801561031557600080fd5b506101f86103243660046116d5565b610b88565b6101f8610337366004611729565b610cf7565b34801561034857600080fd5b5061035c610357366004611576565b610f04565b60405161019c94939291906117d9565b34801561037857600080fd5b506101f8610387366004611576565b610fbf565b34801561039857600080fd5b506101f861109e565b6103a9611182565b60005b818110156104a5577f00000000000000000000000000000000000000000000000000000000000000006001600160a01b031663954fa5ee8484848181106103f5576103f561181b565b905060200201602081019061040a9190611576565b6040517fffffffff0000000000000000000000000000000000000000000000000000000060e084901b1681526001600160a01b0390911660048201523060248201526044016020604051808303816000875af115801561046e573d6000803e3d6000fd5b505050506040513d601f19601f820116820180604052508101906104929190611831565b508061049d8161184a565b9150506103ac565b505050565b6104b2611182565b60005b818110156104a5578282828181106104cf576104cf61181b565b90506020020160208101906104e49190611576565b6001600160a01b03166378fe1dc46040518163ffffffff1660e01b8152600401600060405180830381600087803b15801561051e57600080fd5b505af1158015610532573d6000803e3d6000fd5b5050505080806105419061184a565b9150506104b5565b610551611182565b61055b60006111c8565b565b610565611182565b8281146105c85760405162461bcd60e51b815260206004820152602660248201527f476173526566756e643a2073686f756c642068617665207468652073616d65206044820152650d8cadccee8d60d31b60648201526084015b60405180910390fd5b60005b838110156106e7577f00000000000000000000000000000000000000000000000000000000000000006001600160a01b0316630951888f8686848181106106145761061461181b565b90506020020160208101906106299190611576565b3086868681811061063c5761063c61181b565b6040517fffffffff0000000000000000000000000000000000000000000000000000000060e088901b1681526001600160a01b039586166004820152949093166024850152506020909102013560448201526064016020604051808303816000875af11580156106b0573d6000803e3d6000fd5b505050506040513d601f19601f820116820180604052508101906106d49190611831565b50806106df8161184a565b9150506105cb565b5050505050565b3360008181526004602090815260409182902054915130606090811b7fffffffffffffffffffffffffffffffffffffffff000000000000000000000000908116938301939093524660348301529390931b1660548301526068820184905260888201526107749060a8016040516020818303038152906040528051906020012082611225565b6107c05760405162461bcd60e51b815260206004820152601c60248201527f476173526566756e643a20696e76616c6964207369676e61747572650000000060448201526064016105bf565b3360009081526004602052604081208054916107db8361184a565b9091555050604051600090339084908381818185875af1925050503d8060008114610822576040519150601f19603f3d011682016040523d82523d6000602084013e610827565b606091505b50509050806108785760405162461bcd60e51b815260206004820152601a60248201527f476173526566756e643a207472616e73666572206661696c656400000000000060448201526064016105bf565b60405183815233907f7084f5476618d8e60b11ef0d7d3f06914655adb8793e28ff7f018d4c76d505d59060200160405180910390a2505050565b6108ba611182565b6001600160a01b0381166109365760405162461bcd60e51b815260206004820152602160248201527f476173526566756e643a207369676e6572206973207a65726f2061646472657360448201527f730000000000000000000000000000000000000000000000000000000000000060648201526084016105bf565b6002805473ffffffffffffffffffffffffffffffffffffffff19166001600160a01b0383169081179091556040519081527f0cde44fd016d1c56683231a269ff4812669ea8cfe532e349c2c131280a8a8456906020015b60405180910390a150565b6109a0611182565b60005b818110156104a5577f00000000000000000000000000000000000000000000000000000000000000006001600160a01b031663662aa11d8484848181106109ec576109ec61181b565b9050602002016020810190610a019190611576565b6040517fffffffff0000000000000000000000000000000000000000000000000000000060e084901b1681526001600160a01b0390911660048201523060248201526044016020604051808303816000875af1158015610a65573d6000803e3d6000fd5b505050506040513d601f19601f82011682018060405250810190610a899190611831565b5080610a948161184a565b9150506109a3565b610aa4611182565b6003546001600160a01b0316610b225760405162461bcd60e51b815260206004820152602960248201527f476173526566756e643a206f776e657243616e646964617465206973207a657260448201527f6f2061646472657373000000000000000000000000000000000000000000000060648201526084016105bf565b600354610b37906001600160a01b03166111c8565b7f6471f1c30dd4cf408bd29e2486a575cfa64aedbf8315d8a56d4eac1917fadfa2610b6a6000546001600160a01b031690565b6040516001600160a01b0390911681526020015b60405180910390a1565b610b90611182565b6001600160a01b038116610c0c5760405162461bcd60e51b815260206004820152602660248201527f476173526566756e643a206e6577476f7665726e6f72206973207a65726f206160448201527f646472657373000000000000000000000000000000000000000000000000000060648201526084016105bf565b60005b82811015610cf1577f00000000000000000000000000000000000000000000000000000000000000006001600160a01b0316630ca12c4b83868685818110610c5957610c5961181b565b9050602002016020810190610c6e9190611576565b6040517fffffffff0000000000000000000000000000000000000000000000000000000060e085901b1681526001600160a01b03928316600482015291166024820152604401600060405180830381600087803b158015610cce57600080fd5b505af1158015610ce2573d6000803e3d6000fd5b50505050806001019050610c0f565b50505050565b610cff611182565b848314610d5d5760405162461bcd60e51b815260206004820152602660248201527f476173526566756e643a2073686f756c642068617665207468652073616d65206044820152650d8cadccee8d60d31b60648201526084016105bf565b848114610dbb5760405162461bcd60e51b815260206004820152602660248201527f476173526566756e643a2073686f756c642068617665207468652073616d65206044820152650d8cadccee8d60d31b60648201526084016105bf565b60005b85811015610efb577f00000000000000000000000000000000000000000000000000000000000000006001600160a01b031663fafce39e888884818110610e0757610e0761181b565b9050602002016020810190610e1c9190611576565b30888886818110610e2f57610e2f61181b565b90506020020135878787818110610e4857610e4861181b565b6040517fffffffff0000000000000000000000000000000000000000000000000000000060e089901b1681526001600160a01b0396871660048201529590941660248601525060448401919091526020909102013560648201526084016020604051808303816000875af1158015610ec4573d6000803e3d6000fd5b505050506040513d601f19601f82011682018060405250810190610ee89190611831565b5080610ef38161184a565b915050610dbe565b50505050505050565b6040517fdde798a40000000000000000000000000000000000000000000000000000000081526001600160a01b0382811660048301526000918291829182917f0000000000000000000000000000000000000000000000000000000000000000169063dde798a490602401608060405180830381865afa158015610f8c573d6000803e3d6000fd5b505050506040513d601f19601f82011682018060405250810190610fb09190611890565b93509350935093509193509193565b610fc7611182565b6001600160a01b0381166110435760405162461bcd60e51b815260206004820152602360248201527f476173526566756e643a206e65774f776e6572206973207a65726f206164647260448201527f657373000000000000000000000000000000000000000000000000000000000060648201526084016105bf565b6003805473ffffffffffffffffffffffffffffffffffffffff19166001600160a01b0383169081179091556040519081527f5970707b0779f8699bdf9b3271a9880b8742ab2c5c2ff0129409dd994640fb1a9060200161098d565b6110a6611182565b6002546001600160a01b03166111245760405162461bcd60e51b815260206004820152602a60248201527f476173526566756e643a207369676e657243616e646964617465206973207a6560448201527f726f20616464726573730000000000000000000000000000000000000000000060648201526084016105bf565b6002546001805473ffffffffffffffffffffffffffffffffffffffff19166001600160a01b0390921691821790556040519081527f911fd433d28fb5b4b7fb0df907d19814ec836684130fb74fd5c35eb0286affd790602001610b7e565b6000546001600160a01b0316331461055b576040517f118cdaa70000000000000000000000000000000000000000000000000000000081523360048201526024016105bf565b600080546001600160a01b0383811673ffffffffffffffffffffffffffffffffffffffff19831681178455604051919092169283917f8be0079c531659141344cd1fd0a4f28419497f9722a3daafe3b4186f6b6457e09190a35050565b6001547f19457468657265756d205369676e6564204d6573736167653a0a3332000000006000908152601c849052603c812090916001600160a01b03169061126d908461127e565b6001600160a01b0316149392505050565b60008060008061128e86866112a8565b92509250925061129e82826112f5565b5090949350505050565b600080600083516041036112e25760208401516040850151606086015160001a6112d4888285856113fd565b9550955095505050506112ee565b50508151600091506002905b9250925092565b6000826003811115611309576113096117c3565b03611312575050565b6001826003811115611326576113266117c3565b0361135d576040517ff645eedf00000000000000000000000000000000000000000000000000000000815260040160405180910390fd5b6002826003811115611371576113716117c3565b036113ab576040517ffce698f7000000000000000000000000000000000000000000000000000000008152600481018290526024016105bf565b60038260038111156113bf576113bf6117c3565b036113f9576040517fd78bce0c000000000000000000000000000000000000000000000000000000008152600481018290526024016105bf565b5050565b600080807f7fffffffffffffffffffffffffffffff5d576e7357a4501ddfe92f46681b20a084111561143857506000915060039050826114c2565b604080516000808252602082018084528a905260ff891692820192909252606081018790526080810186905260019060a0016020604051602081039080840390855afa15801561148c573d6000803e3d6000fd5b5050604051601f1901519150506001600160a01b0381166114b8575060009250600191508290506114c2565b9250600091508190505b9450945094915050565b60008083601f8401126114de57600080fd5b50813567ffffffffffffffff8111156114f657600080fd5b6020830191508360208260051b850101111561151157600080fd5b9250929050565b6000806020838503121561152b57600080fd5b823567ffffffffffffffff81111561154257600080fd5b61154e858286016114cc565b90969095509350505050565b80356001600160a01b038116811461157157600080fd5b919050565b60006020828403121561158857600080fd5b6115918261155a565b9392505050565b600080600080604085870312156115ae57600080fd5b843567ffffffffffffffff808211156115c657600080fd5b6115d2888389016114cc565b909650945060208701359150808211156115eb57600080fd5b506115f8878288016114cc565b95989497509550505050565b634e487b7160e01b600052604160045260246000fd5b6000806040838503121561162d57600080fd5b82359150602083013567ffffffffffffffff8082111561164c57600080fd5b818501915085601f83011261166057600080fd5b81358181111561167257611672611604565b604051601f8201601f19908116603f0116810190838211818310171561169a5761169a611604565b816040528281528860208487010111156116b357600080fd5b8260208601602083013760006020848301015280955050505050509250929050565b6000806000604084860312156116ea57600080fd5b833567ffffffffffffffff81111561170157600080fd5b61170d868287016114cc565b909450925061172090506020850161155a565b90509250925092565b6000806000806000806060878903121561174257600080fd5b863567ffffffffffffffff8082111561175a57600080fd5b6117668a838b016114cc565b9098509650602089013591508082111561177f57600080fd5b61178b8a838b016114cc565b909650945060408901359150808211156117a457600080fd5b506117b189828a016114cc565b979a9699509497509295939492505050565b634e487b7160e01b600052602160045260246000fd5b8481526020810184905260408101839052608081016002831061180c57634e487b7160e01b600052602160045260246000fd5b82606083015295945050505050565b634e487b7160e01b600052603260045260246000fd5b60006020828403121561184357600080fd5b5051919050565b60007fffffffffffffffffffffffffffffffffffffffffffffffffffffffffffffffff820361188957634e487b7160e01b600052601160045260246000fd5b5060010190565b600080600080608085870312156118a657600080fd5b8451935060208501519250604085015191506060850151600281106118ca57600080fd5b93969295509093505056fea2646970667358221220c6dcb67f359066cd540de289d4a4cbbd9f74406fd4a749330a68306a41a35a3264736f6c63430008140033",
  "devdoc": {
    "errors": {
      "ECDSAInvalidSignature()": [
        {
          "details": "The signature derives the `address(0)`."
        }
      ],
      "ECDSAInvalidSignatureLength(uint256)": [
        {
          "details": "The signature has an invalid length."
        }
      ],
      "ECDSAInvalidSignatureS(bytes32)": [
        {
          "details": "The signature has an S value that is in the upper half order."
        }
      ],
      "OwnableInvalidOwner(address)": [
        {
          "details": "The owner is not a valid owner account. (eg. `address(0)`)"
        }
      ],
      "OwnableUnauthorizedAccount(address)": [
        {
          "details": "The caller account is not authorized to perform an operation."
        }
      ]
    },
    "kind": "dev",
    "methods": {
      "owner()": {
        "details": "Returns the address of the current owner."
      },
      "renounceOwnership()": {
        "details": "Leaves the contract without owner. It will not be possible to call `onlyOwner` functions. Can only be called by the current owner. NOTE: Renouncing ownership will leave the contract without an owner, thereby disabling any functionality that is only available to the owner."
      }
    },
    "version": 1
  },
  "userdoc": {
    "kind": "user",
    "methods": {},
    "version": 1
  },
  "storageLayout": {
    "storage": [
      {
        "astId": 8,
        "contract": "contracts/GasRefund.sol:GasRefund",
        "label": "_owner",
        "offset": 0,
        "slot": "0",
        "type": "t_address"
      },
      {
        "astId": 2698,
        "contract": "contracts/GasRefund.sol:GasRefund",
        "label": "signer",
        "offset": 0,
        "slot": "1",
        "type": "t_address"
      },
      {
        "astId": 2700,
        "contract": "contracts/GasRefund.sol:GasRefund",
        "label": "signerCandidate",
        "offset": 0,
        "slot": "2",
        "type": "t_address"
      },
      {
        "astId": 2702,
        "contract": "contracts/GasRefund.sol:GasRefund",
        "label": "ownerCandidate",
        "offset": 0,
        "slot": "3",
        "type": "t_address"
      },
      {
        "astId": 2709,
        "contract": "contracts/GasRefund.sol:GasRefund",
        "label": "nonces",
        "offset": 0,
        "slot": "4",
        "type": "t_mapping(t_address,t_uint256)"
      }
    ],
    "types": {
      "t_address": {
        "encoding": "inplace",
        "label": "address",
        "numberOfBytes": "20"
      },
      "t_mapping(t_address,t_uint256)": {
        "encoding": "mapping",
        "key": "t_address",
        "label": "mapping(address => uint256)",
        "numberOfBytes": "32",
        "value": "t_uint256"
      },
      "t_uint256": {
        "encoding": "inplace",
        "label": "uint256",
        "numberOfBytes": "32"
      }
    }
  }
}