{
  "address": "0x55155f8aEC4CA5999F86D04552b9b5A2a2D8CDE5",
  "abi": [
    {
      "inputs": [
        {
          "internalType": "address",
          "name": "_signer",
          "type": "address"
        }
      ],
      "stateMutability": "nonpayable",
      "type": "constructor"
    },
    {
      "inputs": [],
      "name": "ECDSAInvalidSignature",
      "type": "error"
    },
    {
      "inputs": [
        {
          "internalType": "uint256",
          "name": "length",
          "type": "uint256"
        }
      ],
      "name": "ECDSAInvalidSignatureLength",
      "type": "error"
    },
    {
      "inputs": [
        {
          "internalType": "bytes32",
          "name": "s",
          "type": "bytes32"
        }
      ],
      "name": "ECDSAInvalidSignatureS",
      "type": "error"
    },
    {
      "inputs": [
        {
          "internalType": "address",
          "name": "owner",
          "type": "address"
        }
      ],
      "name": "OwnableInvalidOwner",
      "type": "error"
    },
    {
      "inputs": [
        {
          "internalType": "address",
          "name": "account",
          "type": "address"
        }
      ],
      "name": "OwnableUnauthorizedAccount",
      "type": "error"
    },
    {
      "anonymous": false,
      "inputs": [
        {
          "indexed": false,
          "internalType": "address",
          "name": "candidate",
          "type": "address"
        }
      ],
      "name": "OwnerCandidateChanged",
      "type": "event"
    },
    {
      "anonymous": false,
      "inputs": [
        {
          "indexed": false,
          "internalType": "address",
          "name": "newOwner",
          "type": "address"
        }
      ],
      "name": "OwnerCandidateConfirmed",
      "type": "event"
    },
    {
      "anonymous": false,
      "inputs": [
        {
          "indexed": true,
          "internalType": "address",
          "name": "previousOwner",
          "type": "address"
        },
        {
          "indexed": true,
          "internalType": "address",
          "name": "newOwner",
          "type": "address"
        }
      ],
      "name": "OwnershipTransferred",
      "type": "event"
    },
    {
      "anonymous": false,
      "inputs": [
        {
          "indexed": false,
          "internalType": "address",
          "name": "candidate",
          "type": "address"
        }
      ],
      "name": "SignerCandidateChanged",
      "type": "event"
    },
    {
      "anonymous": false,
      "inputs": [
        {
          "indexed": false,
          "internalType": "address",
          "name": "newSigner",
          "type": "address"
        }
      ],
      "name": "SignerCandidateConfirmed",
      "type": "event"
    },
    {
      "anonymous": false,
      "inputs": [
        {
          "indexed": true,
          "internalType": "address",
          "name": "recipient",
          "type": "address"
        },
        {
          "indexed": false,
          "internalType": "uint256",
          "name": "amount",
          "type": "uint256"
        }
      ],
      "name": "Withdrawn",
      "type": "event"
    },
    {
      "anonymous": false,
      "inputs": [
        {
          "indexed": false,
          "internalType": "address[]",
          "name": "pair",
          "type": "address[]"
        }
      ],
      "name": "YeildClaimed",
      "type": "event"
    },
    {
      "inputs": [],
      "name": "blast",
      "outputs": [
        {
          "internalType": "contract IBlast",
          "name": "",
          "type": "address"
        }
      ],
      "stateMutability": "view",
      "type": "function"
    },
    {
      "inputs": [
        {
          "internalType": "address",
          "name": "_signer",
          "type": "address"
        }
      ],
      "name": "changeSigner",
      "outputs": [],
      "stateMutability": "nonpayable",
      "type": "function"
    },
    {
      "inputs": [
        {
          "internalType": "address[]",
          "name": "_contractAddresses",
          "type": "address[]"
        }
      ],
      "name": "claimAllGas",
      "outputs": [],
      "stateMutability": "payable",
      "type": "function"
    },
    {
      "inputs": [
        {
          "internalType": "address[]",
          "name": "_pairs",
          "type": "address[]"
        }
      ],
      "name": "claimAllPoolsGas",
      "outputs": [],
      "stateMutability": "payable",
      "type": "function"
    },
    {
      "inputs": [
        {
          "internalType": "address[]",
          "name": "_contractAddresses",
          "type": "address[]"
        },
        {
          "internalType": "uint256[]",
          "name": "_gasToClaim",
          "type": "uint256[]"
        },
        {
          "internalType": "uint256[]",
          "name": "_gasSecondsToConsume",
          "type": "uint256[]"
        }
      ],
      "name": "claimGas",
      "outputs": [],
      "stateMutability": "payable",
      "type": "function"
    },
    {
      "inputs": [
        {
          "internalType": "address[]",
          "name": "_contractAddresses",
          "type": "address[]"
        },
        {
          "internalType": "uint256[]",
          "name": "_minClaimRateBips",
          "type": "uint256[]"
        }
      ],
      "name": "claimGasAtMinClaimRate",
      "outputs": [],
      "stateMutability": "payable",
      "type": "function"
    },
    {
      "inputs": [
        {
          "internalType": "address[]",
          "name": "_contractAddresses",
          "type": "address[]"
        }
      ],
      "name": "claimMaxGas",
      "outputs": [],
      "stateMutability": "payable",
      "type": "function"
    },
    {
      "inputs": [
        {
          "internalType": "address[]",
          "name": "_pairs",
          "type": "address[]"
        },
        {
          "internalType": "address",
          "name": "_newGovernor",
          "type": "address"
        }
      ],
      "name": "configureGovernorOnBehalf",
      "outputs": [],
      "stateMutability": "nonpayable",
      "type": "function"
    },
    {
      "inputs": [],
      "name": "confirmSigner",
      "outputs": [],
      "stateMutability": "nonpayable",
      "type": "function"
    },
    {
      "inputs": [],
      "name": "confirmTransferOwnership",
      "outputs": [],
      "stateMutability": "nonpayable",
      "type": "function"
    },
    {
      "inputs": [
        {
          "internalType": "address",
          "name": "",
          "type": "address"
        }
      ],
      "name": "nonces",
      "outputs": [
        {
          "internalType": "uint256",
          "name": "",
          "type": "uint256"
        }
      ],
      "stateMutability": "view",
      "type": "function"
    },
    {
      "inputs": [],
      "name": "owner",
      "outputs": [
        {
          "internalType": "address",
          "name": "",
          "type": "address"
        }
      ],
      "stateMutability": "view",
      "type": "function"
    },
    {
      "inputs": [],
      "name": "ownerCandidate",
      "outputs": [
        {
          "internalType": "address",
          "name": "",
          "type": "address"
        }
      ],
      "stateMutability": "view",
      "type": "function"
    },
    {
      "inputs": [
        {
          "internalType": "address",
          "name": "contractAddress",
          "type": "address"
        }
      ],
      "name": "readGasParams",
      "outputs": [
        {
          "internalType": "uint256",
          "name": "etherSeconds",
          "type": "uint256"
        },
        {
          "internalType": "uint256",
          "name": "etherBalance",
          "type": "uint256"
        },
        {
          "internalType": "uint256",
          "name": "lastUpdated",
          "type": "uint256"
        },
        {
          "internalType": "enum IBlast.GasMode",
          "name": "",
          "type": "uint8"
        }
      ],
      "stateMutability": "view",
      "type": "function"
    },
    {
      "inputs": [],
      "name": "renounceOwnership",
      "outputs": [],
      "stateMutability": "nonpayable",
      "type": "function"
    },
    {
      "inputs": [],
      "name": "signer",
      "outputs": [
        {
          "internalType": "address",
          "name": "",
          "type": "address"
        }
      ],
      "stateMutability": "view",
      "type": "function"
    },
    {
      "inputs": [],
      "name": "signerCandidate",
      "outputs": [
        {
          "internalType": "address",
          "name": "",
          "type": "address"
        }
      ],
      "stateMutability": "view",
      "type": "function"
    },
    {
      "inputs": [
        {
          "internalType": "address",
          "name": "_newOwner",
          "type": "address"
        }
      ],
      "name": "transferOwnership",
      "outputs": [],
      "stateMutability": "nonpayable",
      "type": "function"
    },
    {
      "inputs": [
        {
          "components": [
            {
              "internalType": "address",
              "name": "recipient",
              "type": "address"
            },
            {
              "internalType": "uint256",
              "name": "amount",
              "type": "uint256"
            },
            {
              "internalType": "uint256",
              "name": "nonce",
              "type": "uint256"
            }
          ],
          "internalType": "struct IGasRefund.Withdrawal",
          "name": "_withdrawal",
          "type": "tuple"
        },
        {
          "internalType": "bytes",
          "name": "_sig",
          "type": "bytes"
        }
      ],
      "name": "withdrawGas",
      "outputs": [],
      "stateMutability": "payable",
      "type": "function"
    },
    {
      "stateMutability": "payable",
      "type": "receive"
    }
  ],
  "transactionHash": "0xea65deae3bd56038f2e64ca61d1f6e0217963561c0f853ce7b01e3c05944f56c",
  "args": [
    "0x89dA5520BAf6F2956118256b550FC45e2CC9d583"
  ],
  "numDeployments": 1,
  "solcInputHash": "1b6e6edc2e0a0848facc29229bb11a08",
  "bytecode": "0x608060405234801561001057600080fd5b50604051620019b3380380620019b3833981016040819052610031916100d6565b338061005757604051631e4fbdf760e01b81526000600482015260240160405180910390fd5b61006081610086565b50600180546001600160a01b0319166001600160a01b0392909216919091179055610106565b600080546001600160a01b038381166001600160a01b0319831681178455604051919092169283917f8be0079c531659141344cd1fd0a4f28419497f9722a3daafe3b4186f6b6457e09190a35050565b6000602082840312156100e857600080fd5b81516001600160a01b03811681146100ff57600080fd5b9392505050565b61189d80620001166000396000f3fe6080604052600436106101485760003560e01c8063839297da116100c0578063db942c0b11610074578063dde798a411610059578063dde798a414610330578063f2fde38b14610360578063f3b0f4c71461038057600080fd5b8063db942c0b146102fd578063dcce78971461031d57600080fd5b8063aad2b723116100a5578063aad2b723146102b5578063b86bb1cd146102d5578063cc29516a146102e857600080fd5b8063839297da146102845780638da5cb5b1461029757600080fd5b80635136a089116101175780635f504a82116100fc5780635f504a8214610214578063715018a6146102345780637ecebe001461024957600080fd5b80635136a089146101ee5780635a343fea1461020157600080fd5b8063175e1a7d1461015457806319c3fc1d14610199578063238ac933146101ae578063465cedee146101ce57600080fd5b3661014f57005b600080fd5b34801561016057600080fd5b5061017c73430000000000000000000000000000000000000281565b6040516001600160a01b0390911681526020015b60405180910390f35b6101ac6101a7366004611465565b610395565b005b3480156101ba57600080fd5b5060015461017c906001600160a01b031681565b3480156101da57600080fd5b5060025461017c906001600160a01b031681565b6101ac6101fc36600461157b565b610564565b6101ac61020f36600461157b565b610658565b34801561022057600080fd5b5060035461017c906001600160a01b031681565b34801561024057600080fd5b506101ac6106f7565b34801561025557600080fd5b506102766102643660046115d9565b60046020526000908152604090205481565b604051908152602001610190565b6101ac6102923660046115fb565b61070b565b3480156102a357600080fd5b506000546001600160a01b031661017c565b3480156102c157600080fd5b506101ac6102d03660046115d9565b610882565b6101ac6102e336600461157b565b610968565b3480156102f457600080fd5b506101ac610a57565b34801561030957600080fd5b506101ac610318366004611667565b610b43565b6101ac61032b3660046116bb565b610c9d565b34801561033c57600080fd5b5061035061034b3660046115d9565b610e95565b604051610190949392919061176b565b34801561036c57600080fd5b506101ac61037b3660046115d9565b610f42565b34801561038c57600080fd5b506101ac611021565b336000818152600460209081526040918290205491517fffffffffffffffffffffffffffffffffffffffff00000000000000000000000030606090811b8216838501524660348401529490941b90931660548401528401356068830152608882015261041a9060a8016040516020818303038152906040528051906020012082611105565b61046b5760405162461bcd60e51b815260206004820152601c60248201527f476173526566756e643a20696e76616c6964207369676e61747572650000000060448201526064015b60405180910390fd5b336000908152600460205260408120805491610486836117ad565b909155505060405160009033906020850135908381818185875af1925050503d80600081146104d1576040519150601f19603f3d011682016040523d82523d6000602084013e6104d6565b606091505b50509050806105275760405162461bcd60e51b815260206004820152601a60248201527f476173526566756e643a207472616e73666572206661696c65640000000000006044820152606401610462565b604051602080850135825233917f7084f5476618d8e60b11ef0d7d3f06914655adb8793e28ff7f018d4c76d505d5910160405180910390a2505050565b61056c61115e565b60005b818110156106535773430000000000000000000000000000000000000263954fa5ee8484848181106105a3576105a36117f3565b90506020020160208101906105b891906115d9565b6040517fffffffff0000000000000000000000000000000000000000000000000000000060e084901b1681526001600160a01b0390911660048201523060248201526044016020604051808303816000875af115801561061c573d6000803e3d6000fd5b505050506040513d601f19601f820116820180604052508101906106409190611809565b508061064b816117ad565b91505061056f565b505050565b61066061115e565b60005b818110156106535782828281811061067d5761067d6117f3565b905060200201602081019061069291906115d9565b6001600160a01b03166378fe1dc46040518163ffffffff1660e01b8152600401600060405180830381600087803b1580156106cc57600080fd5b505af11580156106e0573d6000803e3d6000fd5b5050505080806106ef906117ad565b915050610663565b6106ff61115e565b61070960006111a4565b565b61071361115e565b8281146107715760405162461bcd60e51b815260206004820152602660248201527f476173526566756e643a2073686f756c642068617665207468652073616d65206044820152650d8cadccee8d60d31b6064820152608401610462565b60005b8381101561087b57734300000000000000000000000000000000000002630951888f8686848181106107a8576107a86117f3565b90506020020160208101906107bd91906115d9565b308686868181106107d0576107d06117f3565b6040517fffffffff0000000000000000000000000000000000000000000000000000000060e088901b1681526001600160a01b039586166004820152949093166024850152506020909102013560448201526064016020604051808303816000875af1158015610844573d6000803e3d6000fd5b505050506040513d601f19601f820116820180604052508101906108689190611809565b5080610873816117ad565b915050610774565b5050505050565b61088a61115e565b6001600160a01b0381166109065760405162461bcd60e51b815260206004820152602160248201527f476173526566756e643a207369676e6572206973207a65726f2061646472657360448201527f73000000000000000000000000000000000000000000000000000000000000006064820152608401610462565b6002805473ffffffffffffffffffffffffffffffffffffffff19166001600160a01b0383169081179091556040519081527f0cde44fd016d1c56683231a269ff4812669ea8cfe532e349c2c131280a8a8456906020015b60405180910390a150565b61097061115e565b60005b818110156106535773430000000000000000000000000000000000000263662aa11d8484848181106109a7576109a76117f3565b90506020020160208101906109bc91906115d9565b6040517fffffffff0000000000000000000000000000000000000000000000000000000060e084901b1681526001600160a01b0390911660048201523060248201526044016020604051808303816000875af1158015610a20573d6000803e3d6000fd5b505050506040513d601f19601f82011682018060405250810190610a449190611809565b5080610a4f816117ad565b915050610973565b610a5f61115e565b6003546001600160a01b0316610add5760405162461bcd60e51b815260206004820152602960248201527f476173526566756e643a206f776e657243616e646964617465206973207a657260448201527f6f206164647265737300000000000000000000000000000000000000000000006064820152608401610462565b600354610af2906001600160a01b03166111a4565b7f6471f1c30dd4cf408bd29e2486a575cfa64aedbf8315d8a56d4eac1917fadfa2610b256000546001600160a01b031690565b6040516001600160a01b0390911681526020015b60405180910390a1565b610b4b61115e565b6001600160a01b038116610bc75760405162461bcd60e51b815260206004820152602660248201527f476173526566756e643a206e6577476f7665726e6f72206973207a65726f206160448201527f64647265737300000000000000000000000000000000000000000000000000006064820152608401610462565b60005b82811015610c9757734300000000000000000000000000000000000002630ca12c4b83868685818110610bff57610bff6117f3565b9050602002016020810190610c1491906115d9565b6040517fffffffff0000000000000000000000000000000000000000000000000000000060e085901b1681526001600160a01b03928316600482015291166024820152604401600060405180830381600087803b158015610c7457600080fd5b505af1158015610c88573d6000803e3d6000fd5b50505050806001019050610bca565b50505050565b610ca561115e565b848314610d035760405162461bcd60e51b815260206004820152602660248201527f476173526566756e643a2073686f756c642068617665207468652073616d65206044820152650d8cadccee8d60d31b6064820152608401610462565b848114610d615760405162461bcd60e51b815260206004820152602660248201527f476173526566756e643a2073686f756c642068617665207468652073616d65206044820152650d8cadccee8d60d31b6064820152608401610462565b60005b85811015610e8c5773430000000000000000000000000000000000000263fafce39e888884818110610d9857610d986117f3565b9050602002016020810190610dad91906115d9565b30888886818110610dc057610dc06117f3565b90506020020135878787818110610dd957610dd96117f3565b6040517fffffffff0000000000000000000000000000000000000000000000000000000060e089901b1681526001600160a01b0396871660048201529590941660248601525060448401919091526020909102013560648201526084016020604051808303816000875af1158015610e55573d6000803e3d6000fd5b505050506040513d601f19601f82011682018060405250810190610e799190611809565b5080610e84816117ad565b915050610d64565b50505050505050565b6040517fdde798a40000000000000000000000000000000000000000000000000000000081526001600160a01b03821660048201526000908190819081907343000000000000000000000000000000000000029063dde798a490602401608060405180830381865afa158015610f0f573d6000803e3d6000fd5b505050506040513d601f19601f82011682018060405250810190610f339190611822565b93509350935093509193509193565b610f4a61115e565b6001600160a01b038116610fc65760405162461bcd60e51b815260206004820152602360248201527f476173526566756e643a206e65774f776e6572206973207a65726f206164647260448201527f65737300000000000000000000000000000000000000000000000000000000006064820152608401610462565b6003805473ffffffffffffffffffffffffffffffffffffffff19166001600160a01b0383169081179091556040519081527f5970707b0779f8699bdf9b3271a9880b8742ab2c5c2ff0129409dd994640fb1a9060200161095d565b61102961115e565b6002546001600160a01b03166110a75760405162461bcd60e51b815260206004820152602a60248201527f476173526566756e643a207369676e657243616e646964617465206973207a6560448201527f726f2061646472657373000000000000000000000000000000000000000000006064820152608401610462565b6002546001805473ffffffffffffffffffffffffffffffffffffffff19166001600160a01b0390921691821790556040519081527f911fd433d28fb5b4b7fb0df907d19814ec836684130fb74fd5c35eb0286affd790602001610b39565b6001547f19457468657265756d205369676e6564204d6573736167653a0a3332000000006000908152601c849052603c812090916001600160a01b03169061114d9084611201565b6001600160a01b0316149392505050565b6000546001600160a01b03163314610709576040517f118cdaa7000000000000000000000000000000000000000000000000000000008152336004820152602401610462565b600080546001600160a01b0383811673ffffffffffffffffffffffffffffffffffffffff19831681178455604051919092169283917f8be0079c531659141344cd1fd0a4f28419497f9722a3daafe3b4186f6b6457e09190a35050565b600080600080611211868661122b565b9250925092506112218282611278565b5090949350505050565b600080600083516041036112655760208401516040850151606086015160001a61125788828585611380565b955095509550505050611271565b50508151600091506002905b9250925092565b600082600381111561128c5761128c611755565b03611295575050565b60018260038111156112a9576112a9611755565b036112e0576040517ff645eedf00000000000000000000000000000000000000000000000000000000815260040160405180910390fd5b60028260038111156112f4576112f4611755565b0361132e576040517ffce698f700000000000000000000000000000000000000000000000000000000815260048101829052602401610462565b600382600381111561134257611342611755565b0361137c576040517fd78bce0c00000000000000000000000000000000000000000000000000000000815260048101829052602401610462565b5050565b600080807f7fffffffffffffffffffffffffffffff5d576e7357a4501ddfe92f46681b20a08411156113bb5750600091506003905082611445565b604080516000808252602082018084528a905260ff891692820192909252606081018790526080810186905260019060a0016020604051602081039080840390855afa15801561140f573d6000803e3d6000fd5b5050604051601f1901519150506001600160a01b03811661143b57506000925060019150829050611445565b9250600091508190505b9450945094915050565b634e487b7160e01b600052604160045260246000fd5b600080828403608081121561147957600080fd5b606081121561148757600080fd5b50829150606083013567ffffffffffffffff808211156114a657600080fd5b818501915085601f8301126114ba57600080fd5b8135818111156114cc576114cc61144f565b604051601f8201601f19908116603f011681019083821181831017156114f4576114f461144f565b8160405282815288602084870101111561150d57600080fd5b8260208601602083013760006020848301015280955050505050509250929050565b60008083601f84011261154157600080fd5b50813567ffffffffffffffff81111561155957600080fd5b6020830191508360208260051b850101111561157457600080fd5b9250929050565b6000806020838503121561158e57600080fd5b823567ffffffffffffffff8111156115a557600080fd5b6115b18582860161152f565b90969095509350505050565b80356001600160a01b03811681146115d457600080fd5b919050565b6000602082840312156115eb57600080fd5b6115f4826115bd565b9392505050565b6000806000806040858703121561161157600080fd5b843567ffffffffffffffff8082111561162957600080fd5b6116358883890161152f565b9096509450602087013591508082111561164e57600080fd5b5061165b8782880161152f565b95989497509550505050565b60008060006040848603121561167c57600080fd5b833567ffffffffffffffff81111561169357600080fd5b61169f8682870161152f565b90945092506116b29050602085016115bd565b90509250925092565b600080600080600080606087890312156116d457600080fd5b863567ffffffffffffffff808211156116ec57600080fd5b6116f88a838b0161152f565b9098509650602089013591508082111561171157600080fd5b61171d8a838b0161152f565b9096509450604089013591508082111561173657600080fd5b5061174389828a0161152f565b979a9699509497509295939492505050565b634e487b7160e01b600052602160045260246000fd5b8481526020810184905260408101839052608081016002831061179e57634e487b7160e01b600052602160045260246000fd5b82606083015295945050505050565b60007fffffffffffffffffffffffffffffffffffffffffffffffffffffffffffffffff82036117ec57634e487b7160e01b600052601160045260246000fd5b5060010190565b634e487b7160e01b600052603260045260246000fd5b60006020828403121561181b57600080fd5b5051919050565b6000806000806080858703121561183857600080fd5b84519350602085015192506040850151915060608501516002811061185c57600080fd5b93969295509093505056fea26469706673582212206407ad351629f4cb97e9a34fc6961563fc2b8c350b8e227f5718dddd36543f1c64736f6c63430008140033",
  "devdoc": {
    "errors": {
      "ECDSAInvalidSignature()": [
        {
          "details": "The signature derives the `address(0)`."
        }
      ],
      "ECDSAInvalidSignatureLength(uint256)": [
        {
          "details": "The signature has an invalid length."
        }
      ],
      "ECDSAInvalidSignatureS(bytes32)": [
        {
          "details": "The signature has an S value that is in the upper half order."
        }
      ],
      "OwnableInvalidOwner(address)": [
        {
          "details": "The owner is not a valid owner account. (eg. `address(0)`)"
        }
      ],
      "OwnableUnauthorizedAccount(address)": [
        {
          "details": "The caller account is not authorized to perform an operation."
        }
      ]
    },
    "kind": "dev",
    "methods": {
      "owner()": {
        "details": "Returns the address of the current owner."
      },
      "renounceOwnership()": {
        "details": "Leaves the contract without owner. It will not be possible to call `onlyOwner` functions. Can only be called by the current owner. NOTE: Renouncing ownership will leave the contract without an owner, thereby disabling any functionality that is only available to the owner."
      }
    },
    "version": 1
  },
  "userdoc": {
    "kind": "user",
    "methods": {},
    "version": 1
  },
  "storageLayout": {
    "storage": [
      {
        "astId": 8,
        "contract": "contracts/GasRefund.sol:GasRefund",
        "label": "_owner",
        "offset": 0,
        "slot": "0",
        "type": "t_address"
      },
      {
        "astId": 2698,
        "contract": "contracts/GasRefund.sol:GasRefund",
        "label": "signer",
        "offset": 0,
        "slot": "1",
        "type": "t_address"
      },
      {
        "astId": 2700,
        "contract": "contracts/GasRefund.sol:GasRefund",
        "label": "signerCandidate",
        "offset": 0,
        "slot": "2",
        "type": "t_address"
      },
      {
        "astId": 2702,
        "contract": "contracts/GasRefund.sol:GasRefund",
        "label": "ownerCandidate",
        "offset": 0,
        "slot": "3",
        "type": "t_address"
      },
      {
        "astId": 2712,
        "contract": "contracts/GasRefund.sol:GasRefund",
        "label": "nonces",
        "offset": 0,
        "slot": "4",
        "type": "t_mapping(t_address,t_uint256)"
      }
    ],
    "types": {
      "t_address": {
        "encoding": "inplace",
        "label": "address",
        "numberOfBytes": "20"
      },
      "t_mapping(t_address,t_uint256)": {
        "encoding": "mapping",
        "key": "t_address",
        "label": "mapping(address => uint256)",
        "numberOfBytes": "32",
        "value": "t_uint256"
      },
      "t_uint256": {
        "encoding": "inplace",
        "label": "uint256",
        "numberOfBytes": "32"
      }
    }
  }
}